{
  "_format": "hh-sol-artifact-1",
  "contractName": "DexAggregator",
  "sourceName": "src/contracts/DexAggregator.sol",
  "abi": [
    {
      "inputs": [],
      "stateMutability": "nonpayable",
      "type": "constructor"
    },
    {
      "inputs": [],
      "name": "USDC",
      "outputs": [
        {
          "internalType": "address",
          "name": "",
          "type": "address"
        }
      ],
      "stateMutability": "view",
      "type": "function"
    },
    {
      "inputs": [],
      "name": "WETH",
      "outputs": [
        {
          "internalType": "address",
          "name": "",
          "type": "address"
        }
      ],
      "stateMutability": "view",
      "type": "function"
    },
    {
      "inputs": [
        {
          "internalType": "address[]",
          "name": "path",
          "type": "address[]"
        },
        {
          "internalType": "uint256",
          "name": "amountIn",
          "type": "uint256"
        }
      ],
      "name": "getHighestAmountOut",
      "outputs": [
        {
          "internalType": "uint256",
          "name": "",
          "type": "uint256"
        },
        {
          "internalType": "uint256",
          "name": "",
          "type": "uint256"
        }
      ],
      "stateMutability": "view",
      "type": "function"
    },
    {
      "inputs": [
        {
          "internalType": "uint256",
          "name": "",
          "type": "uint256"
        }
      ],
      "name": "routers",
      "outputs": [
        {
          "internalType": "contract RouterInterface",
          "name": "",
          "type": "address"
        }
      ],
      "stateMutability": "view",
      "type": "function"
    },
    {
      "inputs": [
        {
          "internalType": "address[]",
          "name": "path",
          "type": "address[]"
        },
        {
          "internalType": "uint256",
          "name": "amountIn",
          "type": "uint256"
        }
      ],
      "name": "sushiRate",
      "outputs": [
        {
          "internalType": "uint256",
          "name": "",
          "type": "uint256"
        }
      ],
      "stateMutability": "view",
      "type": "function"
    },
    {
      "inputs": [
        {
          "internalType": "address[]",
          "name": "path",
          "type": "address[]"
        },
        {
          "internalType": "uint256",
          "name": "amountIn",
          "type": "uint256"
        }
      ],
      "name": "uniRate",
      "outputs": [
        {
          "internalType": "uint256",
          "name": "",
          "type": "uint256"
        }
      ],
      "stateMutability": "view",
      "type": "function"
    },
    {
      "inputs": [
        {
          "internalType": "uint256",
          "name": "usdcAmount",
          "type": "uint256"
        }
      ],
      "name": "usdcToWeth",
      "outputs": [],
      "stateMutability": "nonpayable",
      "type": "function"
    }
  ],
  "bytecode": "0x608060405234801561001057600080fd5b50737a250d5630b4cf539739df2c5dacb4c659f2488d6002600060028110610061577f4e487b7100000000000000000000000000000000000000000000000000000000600052603260045260246000fd5b0160006101000a81548173ffffffffffffffffffffffffffffffffffffffff021916908373ffffffffffffffffffffffffffffffffffffffff16021790555073d9e1ce17f2641f24ae83637ab66a2cca9c378b9f60026001600281106100f0577f4e487b7100000000000000000000000000000000000000000000000000000000600052603260045260246000fd5b0160006101000a81548173ffffffffffffffffffffffffffffffffffffffff021916908373ffffffffffffffffffffffffffffffffffffffff16021790555073c02aaa39b223fe8d0a0e5c4f27ead9083c756cc26000806101000a81548173ffffffffffffffffffffffffffffffffffffffff021916908373ffffffffffffffffffffffffffffffffffffffff16021790555073a0b86991c6218b36c1d19d4a2e9eb0ce3606eb48600160006101000a81548173ffffffffffffffffffffffffffffffffffffffff021916908373ffffffffffffffffffffffffffffffffffffffff160217905550611312806101e76000396000f3fe608060405234801561001057600080fd5b506004361061007d5760003560e01c80637bb4d1321161005b5780637bb4d132146100fe57806389a302711461012e578063acb35b271461014c578063ad5c46481461017d5761007d565b806323c98e1d146100825780634e9c11181461009e578063576c4dcb146100ce575b600080fd5b61009c60048036038101906100979190610e40565b61019b565b005b6100b860048036038101906100b39190610e40565b6105fc565b6040516100c59190610f96565b60405180910390f35b6100e860048036038101906100e39190610d82565b610632565b6040516100f59190610fb1565b60405180910390f35b61011860048036038101906101139190610d82565b61076e565b6040516101259190610fb1565b60405180910390f35b6101366108aa565b6040516101439190610f1b565b60405180910390f35b61016660048036038101906101619190610d82565b6108d0565b604051610174929190610ffc565b60405180910390f35b610185610bde565b6040516101929190610f1b565b60405180910390f35b6000600160009054906101000a900473ffffffffffffffffffffffffffffffffffffffff1690508073ffffffffffffffffffffffffffffffffffffffff166323b872dd3330856040518463ffffffff1660e01b81526004016101ff93929190610f36565b602060405180830381600087803b15801561021957600080fd5b505af115801561022d573d6000803e3d6000fd5b505050506040513d601f19601f820116820180604052508101906102519190610e17565b506000600267ffffffffffffffff811115610295577f4e487b7100000000000000000000000000000000000000000000000000000000600052604160045260246000fd5b6040519080825280602002602001820160405280156102c35781602001602082028036833780820191505090505b509050600160009054906101000a900473ffffffffffffffffffffffffffffffffffffffff1681600081518110610323577f4e487b7100000000000000000000000000000000000000000000000000000000600052603260045260246000fd5b602002602001019073ffffffffffffffffffffffffffffffffffffffff16908173ffffffffffffffffffffffffffffffffffffffff168152505060008054906101000a900473ffffffffffffffffffffffffffffffffffffffff16816001815181106103b8577f4e487b7100000000000000000000000000000000000000000000000000000000600052603260045260246000fd5b602002602001019073ffffffffffffffffffffffffffffffffffffffff16908173ffffffffffffffffffffffffffffffffffffffff16815250506000806103ff83866108d0565b915091508373ffffffffffffffffffffffffffffffffffffffff1663095ea7b360028460028110610459577f4e487b7100000000000000000000000000000000000000000000000000000000600052603260045260246000fd5b0160009054906101000a900473ffffffffffffffffffffffffffffffffffffffff16876040518363ffffffff1660e01b8152600401610499929190610f6d565b602060405180830381600087803b1580156104b357600080fd5b505af11580156104c7573d6000803e3d6000fd5b505050506040513d601f19601f820116820180604052508101906104eb9190610e17565b6104f457600080fd5b6002826002811061052e577f4e487b7100000000000000000000000000000000000000000000000000000000600052603260045260246000fd5b0160009054906101000a900473ffffffffffffffffffffffffffffffffffffffff1673ffffffffffffffffffffffffffffffffffffffff166338ed17398683863361012c4261057d9190611135565b6040518663ffffffff1660e01b815260040161059d959493929190611025565b600060405180830381600087803b1580156105b757600080fd5b505af11580156105cb573d6000803e3d6000fd5b505050506040513d6000823e3d601f19601f820116820180604052508101906105f49190610dd6565b505050505050565b6002816002811061060c57600080fd5b016000915054906101000a900473ffffffffffffffffffffffffffffffffffffffff1681565b6000806002600160028110610670577f4e487b7100000000000000000000000000000000000000000000000000000000600052603260045260246000fd5b0160009054906101000a900473ffffffffffffffffffffffffffffffffffffffff1673ffffffffffffffffffffffffffffffffffffffff1663d06ca61f84866040518363ffffffff1660e01b81526004016106cc929190610fcc565b60006040518083038186803b1580156106e457600080fd5b505afa1580156106f8573d6000803e3d6000fd5b505050506040513d6000823e3d601f19601f820116820180604052508101906107219190610dd6565b90508060018151811061075d577f4e487b7100000000000000000000000000000000000000000000000000000000600052603260045260246000fd5b602002602001015191505092915050565b60008060026000600281106107ac577f4e487b7100000000000000000000000000000000000000000000000000000000600052603260045260246000fd5b0160009054906101000a900473ffffffffffffffffffffffffffffffffffffffff1673ffffffffffffffffffffffffffffffffffffffff1663d06ca61f84866040518363ffffffff1660e01b8152600401610808929190610fcc565b60006040518083038186803b15801561082057600080fd5b505afa158015610834573d6000803e3d6000fd5b505050506040513d6000823e3d601f19601f8201168201806040525081019061085d9190610dd6565b905080600181518110610899577f4e487b7100000000000000000000000000000000000000000000000000000000600052603260045260246000fd5b602002602001015191505092915050565b600160009054906101000a900473ffffffffffffffffffffffffffffffffffffffff1681565b60008060006002600060028110610910577f4e487b7100000000000000000000000000000000000000000000000000000000600052603260045260246000fd5b0160009054906101000a900473ffffffffffffffffffffffffffffffffffffffff1673ffffffffffffffffffffffffffffffffffffffff1663d06ca61f85876040518363ffffffff1660e01b815260040161096c929190610fcc565b60006040518083038186803b15801561098457600080fd5b505afa158015610998573d6000803e3d6000fd5b505050506040513d6000823e3d601f19601f820116820180604052508101906109c19190610dd6565b905060006002600160028110610a00577f4e487b7100000000000000000000000000000000000000000000000000000000600052603260045260246000fd5b0160009054906101000a900473ffffffffffffffffffffffffffffffffffffffff1673ffffffffffffffffffffffffffffffffffffffff1663d06ca61f86886040518363ffffffff1660e01b8152600401610a5c929190610fcc565b60006040518083038186803b158015610a7457600080fd5b505afa158015610a88573d6000803e3d6000fd5b505050506040513d6000823e3d601f19601f82011682018060405250810190610ab19190610dd6565b905080600181518110610aed577f4e487b7100000000000000000000000000000000000000000000000000000000600052603260045260246000fd5b602002602001015182600181518110610b2f577f4e487b7100000000000000000000000000000000000000000000000000000000600052603260045260246000fd5b60200260200101511115610b8c57600082600181518110610b79577f4e487b7100000000000000000000000000000000000000000000000000000000600052603260045260246000fd5b6020026020010151935093505050610bd7565b600181600181518110610bc8577f4e487b7100000000000000000000000000000000000000000000000000000000600052603260045260246000fd5b60200260200101519350935050505b9250929050565b60008054906101000a900473ffffffffffffffffffffffffffffffffffffffff1681565b6000610c15610c10846110a4565b61107f565b90508083825260208201905082856020860282011115610c3457600080fd5b60005b85811015610c645781610c4a8882610cda565b845260208401935060208301925050600181019050610c37565b5050509392505050565b6000610c81610c7c846110d0565b61107f565b90508083825260208201905082856020860282011115610ca057600080fd5b60005b85811015610cd05781610cb68882610d6d565b845260208401935060208301925050600181019050610ca3565b5050509392505050565b600081359050610ce981611297565b92915050565b600082601f830112610d0057600080fd5b8135610d10848260208601610c02565b91505092915050565b600082601f830112610d2a57600080fd5b8151610d3a848260208601610c6e565b91505092915050565b600081519050610d52816112ae565b92915050565b600081359050610d67816112c5565b92915050565b600081519050610d7c816112c5565b92915050565b60008060408385031215610d9557600080fd5b600083013567ffffffffffffffff811115610daf57600080fd5b610dbb85828601610cef565b9250506020610dcc85828601610d58565b9150509250929050565b600060208284031215610de857600080fd5b600082015167ffffffffffffffff811115610e0257600080fd5b610e0e84828501610d19565b91505092915050565b600060208284031215610e2957600080fd5b6000610e3784828501610d43565b91505092915050565b600060208284031215610e5257600080fd5b6000610e6084828501610d58565b91505092915050565b6000610e758383610e81565b60208301905092915050565b610e8a8161118b565b82525050565b610e998161118b565b82525050565b6000610eaa8261110c565b610eb48185611124565b9350610ebf836110fc565b8060005b83811015610ef0578151610ed78882610e69565b9750610ee283611117565b925050600181019050610ec3565b5085935050505092915050565b610f06816111d3565b82525050565b610f15816111c9565b82525050565b6000602082019050610f306000830184610e90565b92915050565b6000606082019050610f4b6000830186610e90565b610f586020830185610e90565b610f656040830184610f0c565b949350505050565b6000604082019050610f826000830185610e90565b610f8f6020830184610f0c565b9392505050565b6000602082019050610fab6000830184610efd565b92915050565b6000602082019050610fc66000830184610f0c565b92915050565b6000604082019050610fe16000830185610f0c565b8181036020830152610ff38184610e9f565b90509392505050565b60006040820190506110116000830185610f0c565b61101e6020830184610f0c565b9392505050565b600060a08201905061103a6000830188610f0c565b6110476020830187610f0c565b81810360408301526110598186610e9f565b90506110686060830185610e90565b6110756080830184610f0c565b9695505050505050565b600061108961109a565b905061109582826111f7565b919050565b6000604051905090565b600067ffffffffffffffff8211156110bf576110be611257565b5b602082029050602081019050919050565b600067ffffffffffffffff8211156110eb576110ea611257565b5b602082029050602081019050919050565b6000819050602082019050919050565b600081519050919050565b6000602082019050919050565b600082825260208201905092915050565b6000611140826111c9565b915061114b836111c9565b9250827fffffffffffffffffffffffffffffffffffffffffffffffffffffffffffffffff038211156111805761117f611228565b5b828201905092915050565b6000611196826111a9565b9050919050565b60008115159050919050565b600073ffffffffffffffffffffffffffffffffffffffff82169050919050565b6000819050919050565b60006111de826111e5565b9050919050565b60006111f0826111a9565b9050919050565b61120082611286565b810181811067ffffffffffffffff8211171561121f5761121e611257565b5b80604052505050565b7f4e487b7100000000000000000000000000000000000000000000000000000000600052601160045260246000fd5b7f4e487b7100000000000000000000000000000000000000000000000000000000600052604160045260246000fd5b6000601f19601f8301169050919050565b6112a08161118b565b81146112ab57600080fd5b50565b6112b78161119d565b81146112c257600080fd5b50565b6112ce816111c9565b81146112d957600080fd5b5056fea2646970667358221220337971e1ce90b9f91b08c1f6819e4db3fa1e57a8c741b87b1ce381faf022a9e164736f6c63430008040033",
  "linkReferences": {},
  "deployedLinkReferences": {}
}