{
  "_format": "hh-sol-artifact-1",
  "contractName": "DexAggregator",
  "sourceName": "src/contracts/DexAggregator.sol",
  "abi": [
    {
      "inputs": [],
      "stateMutability": "nonpayable",
      "type": "constructor"
    },
    {
      "inputs": [],
      "name": "USDC",
      "outputs": [
        {
          "internalType": "address",
          "name": "",
          "type": "address"
        }
      ],
      "stateMutability": "view",
      "type": "function"
    },
    {
      "inputs": [],
      "name": "WETH",
      "outputs": [
        {
          "internalType": "address",
          "name": "",
          "type": "address"
        }
      ],
      "stateMutability": "view",
      "type": "function"
    },
    {
      "inputs": [
        {
          "internalType": "address[]",
          "name": "path",
          "type": "address[]"
        },
        {
          "internalType": "uint256",
          "name": "amountIn",
          "type": "uint256"
        }
      ],
      "name": "getHighestAmountOut",
      "outputs": [
        {
          "internalType": "uint256",
          "name": "",
          "type": "uint256"
        },
        {
          "internalType": "uint256",
          "name": "",
          "type": "uint256"
        }
      ],
      "stateMutability": "view",
      "type": "function"
    },
    {
      "inputs": [
        {
          "internalType": "uint256",
          "name": "",
          "type": "uint256"
        }
      ],
      "name": "routers",
      "outputs": [
        {
          "internalType": "contract RouterInterface",
          "name": "",
          "type": "address"
        }
      ],
      "stateMutability": "view",
      "type": "function"
    },
    {
      "inputs": [
        {
          "internalType": "address[]",
          "name": "path",
          "type": "address[]"
        },
        {
          "internalType": "uint256",
          "name": "amountIn",
          "type": "uint256"
        }
      ],
      "name": "sushiRate",
      "outputs": [
        {
          "internalType": "uint256",
          "name": "",
          "type": "uint256"
        }
      ],
      "stateMutability": "view",
      "type": "function"
    },
    {
      "inputs": [
        {
          "internalType": "address[]",
          "name": "path",
          "type": "address[]"
        },
        {
          "internalType": "uint256",
          "name": "amountIn",
          "type": "uint256"
        }
      ],
      "name": "uniRate",
      "outputs": [
        {
          "internalType": "uint256",
          "name": "",
          "type": "uint256"
        }
      ],
      "stateMutability": "view",
      "type": "function"
    },
    {
      "inputs": [
        {
          "internalType": "uint256",
          "name": "usdcAmount",
          "type": "uint256"
        }
      ],
      "name": "usdcToWeth",
      "outputs": [],
      "stateMutability": "nonpayable",
      "type": "function"
    }
  ],
  "bytecode": "0x608060405234801561001057600080fd5b50737a250d5630b4cf539739df2c5dacb4c659f2488d6002600060028110610061577f4e487b7100000000000000000000000000000000000000000000000000000000600052603260045260246000fd5b0160006101000a81548173ffffffffffffffffffffffffffffffffffffffff021916908373ffffffffffffffffffffffffffffffffffffffff16021790555073d9e1ce17f2641f24ae83637ab66a2cca9c378b9f60026001600281106100f0577f4e487b7100000000000000000000000000000000000000000000000000000000600052603260045260246000fd5b0160006101000a81548173ffffffffffffffffffffffffffffffffffffffff021916908373ffffffffffffffffffffffffffffffffffffffff16021790555073c02aaa39b223fe8d0a0e5c4f27ead9083c756cc26000806101000a81548173ffffffffffffffffffffffffffffffffffffffff021916908373ffffffffffffffffffffffffffffffffffffffff16021790555073a0b86991c6218b36c1d19d4a2e9eb0ce3606eb48600160006101000a81548173ffffffffffffffffffffffffffffffffffffffff021916908373ffffffffffffffffffffffffffffffffffffffff1602179055506112d9806101e76000396000f3fe608060405234801561001057600080fd5b506004361061007d5760003560e01c80637bb4d1321161005b5780637bb4d132146100fe57806389a302711461012e578063acb35b271461014c578063ad5c46481461017d5761007d565b806323c98e1d146100825780634e9c11181461009e578063576c4dcb146100ce575b600080fd5b61009c60048036038101906100979190610e3e565b61019b565b005b6100b860048036038101906100b39190610e3e565b6105fa565b6040516100c59190610f5d565b60405180910390f35b6100e860048036038101906100e39190610d80565b610630565b6040516100f59190610f78565b60405180910390f35b61011860048036038101906101139190610d80565b61076c565b6040516101259190610f78565b60405180910390f35b6101366108a8565b6040516101439190610f19565b60405180910390f35b61016660048036038101906101619190610d80565b6108ce565b604051610174929190610fc3565b60405180910390f35b610185610bdc565b6040516101929190610f19565b60405180910390f35b6000600160009054906101000a900473ffffffffffffffffffffffffffffffffffffffff1690508073ffffffffffffffffffffffffffffffffffffffff1663a9059cbb30846040518363ffffffff1660e01b81526004016101fd929190610f34565b602060405180830381600087803b15801561021757600080fd5b505af115801561022b573d6000803e3d6000fd5b505050506040513d601f19601f8201168201806040525081019061024f9190610e15565b506000600267ffffffffffffffff811115610293577f4e487b7100000000000000000000000000000000000000000000000000000000600052604160045260246000fd5b6040519080825280602002602001820160405280156102c15781602001602082028036833780820191505090505b509050600160009054906101000a900473ffffffffffffffffffffffffffffffffffffffff1681600081518110610321577f4e487b7100000000000000000000000000000000000000000000000000000000600052603260045260246000fd5b602002602001019073ffffffffffffffffffffffffffffffffffffffff16908173ffffffffffffffffffffffffffffffffffffffff168152505060008054906101000a900473ffffffffffffffffffffffffffffffffffffffff16816001815181106103b6577f4e487b7100000000000000000000000000000000000000000000000000000000600052603260045260246000fd5b602002602001019073ffffffffffffffffffffffffffffffffffffffff16908173ffffffffffffffffffffffffffffffffffffffff16815250506000806103fd83866108ce565b915091508373ffffffffffffffffffffffffffffffffffffffff1663095ea7b360028460028110610457577f4e487b7100000000000000000000000000000000000000000000000000000000600052603260045260246000fd5b0160009054906101000a900473ffffffffffffffffffffffffffffffffffffffff16876040518363ffffffff1660e01b8152600401610497929190610f34565b602060405180830381600087803b1580156104b157600080fd5b505af11580156104c5573d6000803e3d6000fd5b505050506040513d601f19601f820116820180604052508101906104e99190610e15565b6104f257600080fd5b6002826002811061052c577f4e487b7100000000000000000000000000000000000000000000000000000000600052603260045260246000fd5b0160009054906101000a900473ffffffffffffffffffffffffffffffffffffffff1673ffffffffffffffffffffffffffffffffffffffff166338ed17398683863361012c4261057b91906110fc565b6040518663ffffffff1660e01b815260040161059b959493929190610fec565b600060405180830381600087803b1580156105b557600080fd5b505af11580156105c9573d6000803e3d6000fd5b505050506040513d6000823e3d601f19601f820116820180604052508101906105f29190610dd4565b505050505050565b6002816002811061060a57600080fd5b016000915054906101000a900473ffffffffffffffffffffffffffffffffffffffff1681565b600080600260016002811061066e577f4e487b7100000000000000000000000000000000000000000000000000000000600052603260045260246000fd5b0160009054906101000a900473ffffffffffffffffffffffffffffffffffffffff1673ffffffffffffffffffffffffffffffffffffffff1663d06ca61f84866040518363ffffffff1660e01b81526004016106ca929190610f93565b60006040518083038186803b1580156106e257600080fd5b505afa1580156106f6573d6000803e3d6000fd5b505050506040513d6000823e3d601f19601f8201168201806040525081019061071f9190610dd4565b90508060018151811061075b577f4e487b7100000000000000000000000000000000000000000000000000000000600052603260045260246000fd5b602002602001015191505092915050565b60008060026000600281106107aa577f4e487b7100000000000000000000000000000000000000000000000000000000600052603260045260246000fd5b0160009054906101000a900473ffffffffffffffffffffffffffffffffffffffff1673ffffffffffffffffffffffffffffffffffffffff1663d06ca61f84866040518363ffffffff1660e01b8152600401610806929190610f93565b60006040518083038186803b15801561081e57600080fd5b505afa158015610832573d6000803e3d6000fd5b505050506040513d6000823e3d601f19601f8201168201806040525081019061085b9190610dd4565b905080600181518110610897577f4e487b7100000000000000000000000000000000000000000000000000000000600052603260045260246000fd5b602002602001015191505092915050565b600160009054906101000a900473ffffffffffffffffffffffffffffffffffffffff1681565b6000806000600260006002811061090e577f4e487b7100000000000000000000000000000000000000000000000000000000600052603260045260246000fd5b0160009054906101000a900473ffffffffffffffffffffffffffffffffffffffff1673ffffffffffffffffffffffffffffffffffffffff1663d06ca61f85876040518363ffffffff1660e01b815260040161096a929190610f93565b60006040518083038186803b15801561098257600080fd5b505afa158015610996573d6000803e3d6000fd5b505050506040513d6000823e3d601f19601f820116820180604052508101906109bf9190610dd4565b9050600060026001600281106109fe577f4e487b7100000000000000000000000000000000000000000000000000000000600052603260045260246000fd5b0160009054906101000a900473ffffffffffffffffffffffffffffffffffffffff1673ffffffffffffffffffffffffffffffffffffffff1663d06ca61f86886040518363ffffffff1660e01b8152600401610a5a929190610f93565b60006040518083038186803b158015610a7257600080fd5b505afa158015610a86573d6000803e3d6000fd5b505050506040513d6000823e3d601f19601f82011682018060405250810190610aaf9190610dd4565b905080600181518110610aeb577f4e487b7100000000000000000000000000000000000000000000000000000000600052603260045260246000fd5b602002602001015182600181518110610b2d577f4e487b7100000000000000000000000000000000000000000000000000000000600052603260045260246000fd5b60200260200101511115610b8a57600082600181518110610b77577f4e487b7100000000000000000000000000000000000000000000000000000000600052603260045260246000fd5b6020026020010151935093505050610bd5565b600181600181518110610bc6577f4e487b7100000000000000000000000000000000000000000000000000000000600052603260045260246000fd5b60200260200101519350935050505b9250929050565b60008054906101000a900473ffffffffffffffffffffffffffffffffffffffff1681565b6000610c13610c0e8461106b565b611046565b90508083825260208201905082856020860282011115610c3257600080fd5b60005b85811015610c625781610c488882610cd8565b845260208401935060208301925050600181019050610c35565b5050509392505050565b6000610c7f610c7a84611097565b611046565b90508083825260208201905082856020860282011115610c9e57600080fd5b60005b85811015610cce5781610cb48882610d6b565b845260208401935060208301925050600181019050610ca1565b5050509392505050565b600081359050610ce78161125e565b92915050565b600082601f830112610cfe57600080fd5b8135610d0e848260208601610c00565b91505092915050565b600082601f830112610d2857600080fd5b8151610d38848260208601610c6c565b91505092915050565b600081519050610d5081611275565b92915050565b600081359050610d658161128c565b92915050565b600081519050610d7a8161128c565b92915050565b60008060408385031215610d9357600080fd5b600083013567ffffffffffffffff811115610dad57600080fd5b610db985828601610ced565b9250506020610dca85828601610d56565b9150509250929050565b600060208284031215610de657600080fd5b600082015167ffffffffffffffff811115610e0057600080fd5b610e0c84828501610d17565b91505092915050565b600060208284031215610e2757600080fd5b6000610e3584828501610d41565b91505092915050565b600060208284031215610e5057600080fd5b6000610e5e84828501610d56565b91505092915050565b6000610e738383610e7f565b60208301905092915050565b610e8881611152565b82525050565b610e9781611152565b82525050565b6000610ea8826110d3565b610eb281856110eb565b9350610ebd836110c3565b8060005b83811015610eee578151610ed58882610e67565b9750610ee0836110de565b925050600181019050610ec1565b5085935050505092915050565b610f048161119a565b82525050565b610f1381611190565b82525050565b6000602082019050610f2e6000830184610e8e565b92915050565b6000604082019050610f496000830185610e8e565b610f566020830184610f0a565b9392505050565b6000602082019050610f726000830184610efb565b92915050565b6000602082019050610f8d6000830184610f0a565b92915050565b6000604082019050610fa86000830185610f0a565b8181036020830152610fba8184610e9d565b90509392505050565b6000604082019050610fd86000830185610f0a565b610fe56020830184610f0a565b9392505050565b600060a0820190506110016000830188610f0a565b61100e6020830187610f0a565b81810360408301526110208186610e9d565b905061102f6060830185610e8e565b61103c6080830184610f0a565b9695505050505050565b6000611050611061565b905061105c82826111be565b919050565b6000604051905090565b600067ffffffffffffffff8211156110865761108561121e565b5b602082029050602081019050919050565b600067ffffffffffffffff8211156110b2576110b161121e565b5b602082029050602081019050919050565b6000819050602082019050919050565b600081519050919050565b6000602082019050919050565b600082825260208201905092915050565b600061110782611190565b915061111283611190565b9250827fffffffffffffffffffffffffffffffffffffffffffffffffffffffffffffffff03821115611147576111466111ef565b5b828201905092915050565b600061115d82611170565b9050919050565b60008115159050919050565b600073ffffffffffffffffffffffffffffffffffffffff82169050919050565b6000819050919050565b60006111a5826111ac565b9050919050565b60006111b782611170565b9050919050565b6111c78261124d565b810181811067ffffffffffffffff821117156111e6576111e561121e565b5b80604052505050565b7f4e487b7100000000000000000000000000000000000000000000000000000000600052601160045260246000fd5b7f4e487b7100000000000000000000000000000000000000000000000000000000600052604160045260246000fd5b6000601f19601f8301169050919050565b61126781611152565b811461127257600080fd5b50565b61127e81611164565b811461128957600080fd5b50565b61129581611190565b81146112a057600080fd5b5056fea2646970667358221220eab66673d96eacff4c155ddd35b953ec53c1bf9c93258b18cd58bc0a611de20964736f6c63430008040033",
  "linkReferences": {},
  "deployedLinkReferences": {}
}